{
  "transactions": [
    {
      "hash": "0x7d698253de76a1c8a478f9c5dcdbf83d32fbd1f436ebcd737b5e46f0f6bc3716",
      "transactionType": "CALL",
      "contractName": null,
      "contractAddress": "0xd8690c73988c593033de284a0eeed6bcf5c1ef25",
      "function": "approve(address,uint256)",
      "arguments": [
        "0x6C2fC2923f225A207F26E380cda1eceC09d4FFE7",
        "5000000000000000000"
      ],
      "transaction": {
        "from": "0xe8e8272b7574f5248eddf28aaf882db89474af6c",
        "to": "0xd8690c73988c593033de284a0eeed6bcf5c1ef25",
        "gas": "0xfd52",
        "value": "0x0",
        "input": "0x095ea7b30000000000000000000000006c2fc2923f225a207f26e380cda1ecec09d4ffe70000000000000000000000000000000000000000000000004563918244f40000",
        "nonce": "0x33",
        "chainId": "0xb626"
      },
      "additionalContracts": [],
      "isFixedGasLimit": false
    },
    {
      "hash": "0x918749b65be827599a98fb4696daebd7423ca403d1696c303953f5f05e20740b",
      "transactionType": "CALL",
      "contractName": null,
      "contractAddress": "0xd8690c73988c593033de284a0eeed6bcf5c1ef25",
      "function": "approve(address,uint256)",
      "arguments": [
        "0x8A7564CB7638767dfEB703C9050f19E1C398c325",
        "5000000000000000000"
      ],
      "transaction": {
        "from": "0xe8e8272b7574f5248eddf28aaf882db89474af6c",
        "to": "0xd8690c73988c593033de284a0eeed6bcf5c1ef25",
        "gas": "0xfd52",
        "value": "0x0",
        "input": "0x095ea7b30000000000000000000000008a7564cb7638767dfeb703c9050f19e1c398c3250000000000000000000000000000000000000000000000004563918244f40000",
        "nonce": "0x34",
        "chainId": "0xb626"
      },
      "additionalContracts": [],
      "isFixedGasLimit": false
    },
    {
      "hash": "0x1f90f99bfc7a823fe93fc6154430ef7604b6d9964e68b14fe042962621aaeee1",
      "transactionType": "CALL",
      "contractName": null,
      "contractAddress": "0xd8690c73988c593033de284a0eeed6bcf5c1ef25",
      "function": "approve(address,uint256)",
      "arguments": [
        "0x6879852c5DA24993e76d8C69A4ADa942Cb76Eb89",
        "5000000000000000000"
      ],
      "transaction": {
        "from": "0xe8e8272b7574f5248eddf28aaf882db89474af6c",
        "to": "0xd8690c73988c593033de284a0eeed6bcf5c1ef25",
        "gas": "0xfd52",
        "value": "0x0",
        "input": "0x095ea7b30000000000000000000000006879852c5da24993e76d8c69a4ada942cb76eb890000000000000000000000000000000000000000000000004563918244f40000",
        "nonce": "0x35",
        "chainId": "0xb626"
      },
      "additionalContracts": [],
      "isFixedGasLimit": false
    },
    {
      "hash": "0x75185ace2fd7403bb669aebde512e396fecb3a778247897204b036bdee20afbb",
      "transactionType": "CALL",
      "contractName": null,
      "contractAddress": "0xd8690c73988c593033de284a0eeed6bcf5c1ef25",
      "function": "approve(address,uint256)",
      "arguments": [
        "0x5f8021925EB18B9243f8616A4547492e6c993bA2",
        "5000000000000000000"
      ],
      "transaction": {
        "from": "0xe8e8272b7574f5248eddf28aaf882db89474af6c",
        "to": "0xd8690c73988c593033de284a0eeed6bcf5c1ef25",
        "gas": "0xfd52",
        "value": "0x0",
        "input": "0x095ea7b30000000000000000000000005f8021925eb18b9243f8616a4547492e6c993ba20000000000000000000000000000000000000000000000004563918244f40000",
        "nonce": "0x36",
        "chainId": "0xb626"
      },
      "additionalContracts": [],
      "isFixedGasLimit": false
    },
    {
      "hash": "0x0da8f19b7ae8b6c6c28b7742fd1136ec1295e8b3d048abf13732ec2f81c05515",
      "transactionType": "CALL",
      "contractName": null,
      "contractAddress": "0x5884ad2f920c162cfbbacc88c9c51aa75ec09e02",
      "function": "approve(address,uint256)",
      "arguments": [
        "0x6C2fC2923f225A207F26E380cda1eceC09d4FFE7",
        "13000000000000000000"
      ],
      "transaction": {
        "from": "0xe8e8272b7574f5248eddf28aaf882db89474af6c",
        "to": "0x5884ad2f920c162cfbbacc88c9c51aa75ec09e02",
        "gas": "0x146e6",
        "value": "0x0",
        "input": "0x095ea7b30000000000000000000000006c2fc2923f225a207f26e380cda1ecec09d4ffe7000000000000000000000000000000000000000000000000b469471f80140000",
        "nonce": "0x37",
        "chainId": "0xb626"
      },
      "additionalContracts": [],
      "isFixedGasLimit": false
    },
    {
      "hash": "0xf34d28a8db5d922feb5a0085df427a46036dcb0ee9c2b45dc0e6b0e9d68df1f6",
      "transactionType": "CALL",
      "contractName": null,
      "contractAddress": "0xc9f9c86933092bbbfff3ccb4b105a4a94bf3bd4e",
      "function": "approve(address,uint256)",
      "arguments": [
        "0x6C2fC2923f225A207F26E380cda1eceC09d4FFE7",
        "10000000000000000000"
      ],
      "transaction": {
        "from": "0xe8e8272b7574f5248eddf28aaf882db89474af6c",
        "to": "0xc9f9c86933092bbbfff3ccb4b105a4a94bf3bd4e",
        "gas": "0x146e6",
        "value": "0x0",
        "input": "0x095ea7b30000000000000000000000006c2fc2923f225a207f26e380cda1ecec09d4ffe70000000000000000000000000000000000000000000000008ac7230489e80000",
        "nonce": "0x38",
        "chainId": "0xb626"
      },
      "additionalContracts": [],
      "isFixedGasLimit": false
    },
    {
      "hash": "0x1ccdc9600d7570bae43d3e08bd02f8490e3a3c50ec6dc3f59f59b42fd69cb16f",
      "transactionType": "CALL",
      "contractName": null,
      "contractAddress": "0x6c2fc2923f225a207f26e380cda1ecec09d4ffe7",
      "function": "addLiquidity(uint256,uint256)",
      "arguments": [
        "13000000000000000000",
        "10000000000000000000"
      ],
      "transaction": {
        "from": "0xe8e8272b7574f5248eddf28aaf882db89474af6c",
        "to": "0x6c2fc2923f225a207f26e380cda1ecec09d4ffe7",
        "gas": "0x71416",
        "value": "0x0",
        "input": "0x9cd441da000000000000000000000000000000000000000000000000b469471f801400000000000000000000000000000000000000000000000000008ac7230489e80000",
        "nonce": "0x39",
        "chainId": "0xb626"
      },
      "additionalContracts": [],
      "isFixedGasLimit": false
    },
    {
      "hash": "0xce538fb9429f85a51f9de0288c9591fd141c44bf3b7ee092e1911cd8d2a2433e",
      "transactionType": "CALL",
      "contractName": null,
      "contractAddress": "0x3b8262a63d25f0477c4dde23f83cfe22cb768c93",
      "function": "approve(address,uint256)",
      "arguments": [
        "0x8A7564CB7638767dfEB703C9050f19E1C398c325",
        "2000000000000000000"
      ],
      "transaction": {
        "from": "0xe8e8272b7574f5248eddf28aaf882db89474af6c",
        "to": "0x3b8262a63d25f0477c4dde23f83cfe22cb768c93",
        "gas": "0x146e6",
        "value": "0x0",
        "input": "0x095ea7b30000000000000000000000008a7564cb7638767dfeb703c9050f19e1c398c3250000000000000000000000000000000000000000000000001bc16d674ec80000",
        "nonce": "0x3a",
        "chainId": "0xb626"
      },
      "additionalContracts": [],
      "isFixedGasLimit": false
    },
    {
      "hash": "0x6e583e858a8867a77d88d0768d13b638a15a9cc76fc98cda87524f5ad02c69fa",
      "transactionType": "CALL",
      "contractName": null,
      "contractAddress": "0x5884ad2f920c162cfbbacc88c9c51aa75ec09e02",
      "function": "approve(address,uint256)",
      "arguments": [
        "0x8A7564CB7638767dfEB703C9050f19E1C398c325",
        "10000000000000000000"
      ],
      "transaction": {
        "from": "0xe8e8272b7574f5248eddf28aaf882db89474af6c",
        "to": "0x5884ad2f920c162cfbbacc88c9c51aa75ec09e02",
        "gas": "0x146e6",
        "value": "0x0",
        "input": "0x095ea7b30000000000000000000000008a7564cb7638767dfeb703c9050f19e1c398c3250000000000000000000000000000000000000000000000008ac7230489e80000",
        "nonce": "0x3b",
        "chainId": "0xb626"
      },
      "additionalContracts": [],
      "isFixedGasLimit": false
    },
    {
      "hash": "0x0147d13f2957566be78b368bcdf4b10d1792f8a5c6b56979d96508c5576a10fd",
      "transactionType": "CALL",
      "contractName": null,
      "contractAddress": "0x8a7564cb7638767dfeb703c9050f19e1c398c325",
      "function": "addLiquidity(uint256,uint256)",
      "arguments": [
        "2000000000000000000",
        "10000000000000000000"
      ],
      "transaction": {
        "from": "0xe8e8272b7574f5248eddf28aaf882db89474af6c",
        "to": "0x8a7564cb7638767dfeb703c9050f19e1c398c325",
        "gas": "0x789a4",
        "value": "0x0",
        "input": "0x9cd441da0000000000000000000000000000000000000000000000001bc16d674ec800000000000000000000000000000000000000000000000000008ac7230489e80000",
        "nonce": "0x3c",
        "chainId": "0xb626"
      },
      "additionalContracts": [],
      "isFixedGasLimit": false
    },
    {
      "hash": "0xe54415d364b28385c5062d04301fdbeca4e522b56b20da8f1c1c0c4828a67b70",
      "transactionType": "CALL",
      "contractName": null,
      "contractAddress": "0x1fbe1a0e43594b3455993b5de5fd0a7a266298d0",
      "function": "approve(address,uint256)",
      "arguments": [
        "0x6879852c5DA24993e76d8C69A4ADa942Cb76Eb89",
        "38000000000000000000"
      ],
      "transaction": {
        "from": "0xe8e8272b7574f5248eddf28aaf882db89474af6c",
        "to": "0x1fbe1a0e43594b3455993b5de5fd0a7a266298d0",
        "gas": "0x146f7",
        "value": "0x0",
        "input": "0x095ea7b30000000000000000000000006879852c5da24993e76d8c69a4ada942cb76eb890000000000000000000000000000000000000000000000020f5b1eaad8d80000",
        "nonce": "0x3d",
        "chainId": "0xb626"
      },
      "additionalContracts": [],
      "isFixedGasLimit": false
    },
    {
      "hash": "0x5148460e577babcc0dea083b49d0f5ceea0e8068d278412f2a16191fbcce0206",
      "transactionType": "CALL",
      "contractName": null,
      "contractAddress": "0x71178bac73cbeb415514eb542a8995b82669778d",
      "function": "approve(address,uint256)",
      "arguments": [
        "0x6879852c5DA24993e76d8C69A4ADa942Cb76Eb89",
        "10000000000000000000"
      ],
      "transaction": {
        "from": "0xe8e8272b7574f5248eddf28aaf882db89474af6c",
        "to": "0x71178bac73cbeb415514eb542a8995b82669778d",
        "gas": "0x146e6",
        "value": "0x0",
        "input": "0x095ea7b30000000000000000000000006879852c5da24993e76d8c69a4ada942cb76eb890000000000000000000000000000000000000000000000008ac7230489e80000",
        "nonce": "0x3e",
        "chainId": "0xb626"
      },
      "additionalContracts": [],
      "isFixedGasLimit": false
    },
    {
      "hash": "0xede4684469e74e0fb929dfef294e70d771ffabd4672129efbd77042ad6377a98",
      "transactionType": "CALL",
      "contractName": null,
      "contractAddress": "0x6879852c5da24993e76d8c69a4ada942cb76eb89",
      "function": "addLiquidity(uint256,uint256)",
      "arguments": [
        "38000000000000000000",
        "10000000000000000000"
      ],
      "transaction": {
        "from": "0xe8e8272b7574f5248eddf28aaf882db89474af6c",
        "to": "0x6879852c5da24993e76d8c69a4ada942cb76eb89",
        "gas": "0x79ed9",
        "value": "0x0",
        "input": "0x9cd441da0000000000000000000000000000000000000000000000020f5b1eaad8d800000000000000000000000000000000000000000000000000008ac7230489e80000",
        "nonce": "0x3f",
        "chainId": "0xb626"
      },
      "additionalContracts": [],
      "isFixedGasLimit": false
    },
    {
      "hash": "0xf0f6a0f2223e350ae95547eeedadb617adfdcc1b6ab371e7ca6076a225711c3e",
      "transactionType": "CALL",
      "contractName": null,
      "contractAddress": "0x3b8262a63d25f0477c4dde23f83cfe22cb768c93",
      "function": "approve(address,uint256)",
      "arguments": [
        "0x5f8021925EB18B9243f8616A4547492e6c993bA2",
        "10000000000000000000"
      ],
      "transaction": {
        "from": "0xe8e8272b7574f5248eddf28aaf882db89474af6c",
        "to": "0x3b8262a63d25f0477c4dde23f83cfe22cb768c93",
        "gas": "0x146e6",
        "value": "0x0",
        "input": "0x095ea7b30000000000000000000000005f8021925eb18b9243f8616a4547492e6c993ba20000000000000000000000000000000000000000000000008ac7230489e80000",
        "nonce": "0x40",
        "chainId": "0xb626"
      },
      "additionalContracts": [],
      "isFixedGasLimit": false
    },
    {
      "hash": "0x6866a6e21d6407bd1d2302e9068fd7b974142179e221530d3305ade26bad58b1",
      "transactionType": "CALL",
      "contractName": null,
      "contractAddress": "0xc9f9c86933092bbbfff3ccb4b105a4a94bf3bd4e",
      "function": "approve(address,uint256)",
      "arguments": [
        "0x5f8021925EB18B9243f8616A4547492e6c993bA2",
        "38000000000000000000"
      ],
      "transaction": {
        "from": "0xe8e8272b7574f5248eddf28aaf882db89474af6c",
        "to": "0xc9f9c86933092bbbfff3ccb4b105a4a94bf3bd4e",
        "gas": "0x146f7",
        "value": "0x0",
        "input": "0x095ea7b30000000000000000000000005f8021925eb18b9243f8616a4547492e6c993ba20000000000000000000000000000000000000000000000020f5b1eaad8d80000",
        "nonce": "0x41",
        "chainId": "0xb626"
      },
      "additionalContracts": [],
      "isFixedGasLimit": false
    },
    {
      "hash": "0xd5a7b5affc98e32ed4133cd9eecd330079f59a8b0a37a486440b74f7948205e2",
      "transactionType": "CALL",
      "contractName": null,
      "contractAddress": "0x5f8021925eb18b9243f8616a4547492e6c993ba2",
      "function": "addLiquidity(uint256,uint256)",
      "arguments": [
        "10000000000000000000",
        "38000000000000000000"
      ],
      "transaction": {
        "from": "0xe8e8272b7574f5248eddf28aaf882db89474af6c",
        "to": "0x5f8021925eb18b9243f8616a4547492e6c993ba2",
        "gas": "0x7ad32",
        "value": "0x0",
        "input": "0x9cd441da0000000000000000000000000000000000000000000000008ac7230489e800000000000000000000000000000000000000000000000000020f5b1eaad8d80000",
        "nonce": "0x42",
        "chainId": "0xb626"
      },
      "additionalContracts": [],
      "isFixedGasLimit": false
    }
  ],
  "receipts": [
    {
      "type": "0x2",
      "status": "0x1",
      "cumulativeGasUsed": "0xcde4",
      "logs": [
        {
          "address": "0xd8690c73988c593033de284a0eeed6bcf5c1ef25",
          "topics": [
            "0x8c5be1e5ebec7d5bd14f71427d1e84f3dd0314c0f7b2291e5b200ac8c7c3b925",
            "0x000000000000000000000000e8e8272b7574f5248eddf28aaf882db89474af6c",
            "0x0000000000000000000000006c2fc2923f225a207f26e380cda1ecec09d4ffe7"
          ],
          "data": "0x0000000000000000000000000000000000000000000000004563918244f40000",
          "blockHash": "0xc525150d4edd703b358eae5c29dfcf60ef3b34781bc2e20b101e5196bd7d73e3",
          "blockNumber": "0x365c5f6",
          "blockTimestamp": "0x6a0cf705",
          "transactionHash": "0x6866a6e21d6407bd1d2302e9068fd7b974142179e221530d3305ade26bad58b1",
          "transactionIndex": "0x1",
          "logIndex": "0x0",
          "removed": false
        }
      ],
      "logsBloom": "0x00000000000000000000200000000000000000000000000000000000000000000000000000000000000000000000000000000000000000000000000000200000000000000000000002000000000000000000200000000000000000000000000000000000000000000000001000000000000000000000000040000000000000000000000000000000000000000000000000000000000000000000000000000000020000000000000000000000000000000000000000000000000001000000000000000000000000000000000000400000000000020000000000000000000000000010000000000000000000000000000000000000000000000000000000000000",
      "transactionHash": "0x6866a6e21d6407bd1d2302e9068fd7b974142179e221530d3305ade26bad58b1",
      "transactionIndex": "0x1",
      "blockHash": "0xc525150d4edd703b358eae5c29dfcf60ef3b34781bc2e20b101e5196bd7d73e3",
      "blockNumber": "0x365c5f6",
      "gasUsed": "0xcde4",
      "effectiveGasPrice": "0x989680",
      "from": "0xe8e8272b7574f5248eddf28aaf882db89474af6c",
      "to": "0xd8690c73988c593033de284a0eeed6bcf5c1ef25",
      "contractAddress": null
    },
    {
      "type": "0x2",
      "status": "0x1",
      "cumulativeGasUsed": "0x19bc8",
      "logs": [
        {
          "address": "0xd8690c73988c593033de284a0eeed6bcf5c1ef25",
          "topics": [
            "0x8c5be1e5ebec7d5bd14f71427d1e84f3dd0314c0f7b2291e5b200ac8c7c3b925",
            "0x000000000000000000000000e8e8272b7574f5248eddf28aaf882db89474af6c",
            "0x0000000000000000000000008a7564cb7638767dfeb703c9050f19e1c398c325"
          ],
          "data": "0x0000000000000000000000000000000000000000000000004563918244f40000",
          "blockHash": "0xc525150d4edd703b358eae5c29dfcf60ef3b34781bc2e20b101e5196bd7d73e3",
          "blockNumber": "0x365c5f6",
          "blockTimestamp": "0x6a0cf705",
          "transactionHash": "0x5148460e577babcc0dea083b49d0f5ceea0e8068d278412f2a16191fbcce0206",
          "transactionIndex": "0x2",
          "logIndex": "0x1",
          "removed": false
        }
      ],
      "logsBloom": "0x01000000000000000000000000000000000000000000000000000000000000000000000000000000000000000000000000000000000000000000000000200000000000000000000002000000000000000000200000000000000000000000000000000000000000000000001001000000000000000000000040000000000000000000000800000000000000000000000000000000000000000000000000000000020000000000000000000000000000000000000000000000000001000000000000000000000000000000000000000000000000000000000000000000000000000010000000000000000000000000000000000000000000000000000000000000",
      "transactionHash": "0x5148460e577babcc0dea083b49d0f5ceea0e8068d278412f2a16191fbcce0206",
      "transactionIndex": "0x2",
      "blockHash": "0xc525150d4edd703b358eae5c29dfcf60ef3b34781bc2e20b101e5196bd7d73e3",
      "blockNumber": "0x365c5f6",
      "gasUsed": "0xcde4",
      "effectiveGasPrice": "0x989680",
      "from": "0xe8e8272b7574f5248eddf28aaf882db89474af6c",
      "to": "0xd8690c73988c593033de284a0eeed6bcf5c1ef25",
      "contractAddress": null
    },
    {
      "type": "0x2",
      "status": "0x1",
      "cumulativeGasUsed": "0x269ac",
      "logs": [
        {
          "address": "0xd8690c73988c593033de284a0eeed6bcf5c1ef25",
          "topics": [
            "0x8c5be1e5ebec7d5bd14f71427d1e84f3dd0314c0f7b2291e5b200ac8c7c3b925",
            "0x000000000000000000000000e8e8272b7574f5248eddf28aaf882db89474af6c",
            "0x0000000000000000000000006879852c5da24993e76d8c69a4ada942cb76eb89"
          ],
          "data": "0x0000000000000000000000000000000000000000000000004563918244f40000",
          "blockHash": "0xc525150d4edd703b358eae5c29dfcf60ef3b34781bc2e20b101e5196bd7d73e3",
          "blockNumber": "0x365c5f6",
          "blockTimestamp": "0x6a0cf705",
          "transactionHash": "0x6e583e858a8867a77d88d0768d13b638a15a9cc76fc98cda87524f5ad02c69fa",
          "transactionIndex": "0x3",
          "logIndex": "0x2",
          "removed": false
        }
      ],
      "logsBloom": "0x00000000000000000000000000000000000000000000000000000000000000000000000000000000000000000000000000000000000000000000000000200000000000000000000002000000000000000000200000000000000000000000000000000000000000000000041000000400000000000000000040000000000000000000000000000000000000800000000000000000000000000000000000000000020000000000000000000000000000000000000000000000000001000000000000000000000000000000000000000000000000000000000000000000000000000010000000000000000000000000000000000000000000000000000000000000",
      "transactionHash": "0x6e583e858a8867a77d88d0768d13b638a15a9cc76fc98cda87524f5ad02c69fa",
      "transactionIndex": "0x3",
      "blockHash": "0xc525150d4edd703b358eae5c29dfcf60ef3b34781bc2e20b101e5196bd7d73e3",
      "blockNumber": "0x365c5f6",
      "gasUsed": "0xcde4",
      "effectiveGasPrice": "0x989680",
      "from": "0xe8e8272b7574f5248eddf28aaf882db89474af6c",
      "to": "0xd8690c73988c593033de284a0eeed6bcf5c1ef25",
      "contractAddress": null
    },
    {
      "type": "0x2",
      "status": "0x1",
      "cumulativeGasUsed": "0x33790",
      "logs": [
        {
          "address": "0xd8690c73988c593033de284a0eeed6bcf5c1ef25",
          "topics": [
            "0x8c5be1e5ebec7d5bd14f71427d1e84f3dd0314c0f7b2291e5b200ac8c7c3b925",
            "0x000000000000000000000000e8e8272b7574f5248eddf28aaf882db89474af6c",
            "0x0000000000000000000000005f8021925eb18b9243f8616a4547492e6c993ba2"
          ],
          "data": "0x0000000000000000000000000000000000000000000000004563918244f40000",
          "blockHash": "0xc525150d4edd703b358eae5c29dfcf60ef3b34781bc2e20b101e5196bd7d73e3",
          "blockNumber": "0x365c5f6",
          "blockTimestamp": "0x6a0cf705",
          "transactionHash": "0x0da8f19b7ae8b6c6c28b7742fd1136ec1295e8b3d048abf13732ec2f81c05515",
          "transactionIndex": "0x4",
          "logIndex": "0x3",
          "removed": false
        }
      ],
      "logsBloom": "0x00000000000000000000000000000000000000000000000000000000000000000000000000000000000000000000000000000000000000000000000000200000000000000000000002000000000000000000200000000000800000000000000000000000000000000000001000000000000000000000000040000000000000000000000000000000000000000000000000100000000000000000000000000000020000000000000000000000000000000000000000000000000001010000000000000000000000000000000000000000000000000000000000000000000000000010000000000000000000000000000000000000000000000000000000000000",
      "transactionHash": "0x0da8f19b7ae8b6c6c28b7742fd1136ec1295e8b3d048abf13732ec2f81c05515",
      "transactionIndex": "0x4",
      "blockHash": "0xc525150d4edd703b358eae5c29dfcf60ef3b34781bc2e20b101e5196bd7d73e3",
      "blockNumber": "0x365c5f6",
      "gasUsed": "0xcde4",
      "effectiveGasPrice": "0x989680",
      "from": "0xe8e8272b7574f5248eddf28aaf882db89474af6c",
      "to": "0xd8690c73988c593033de284a0eeed6bcf5c1ef25",
      "contractAddress": null
    },
    {
      "type": "0x2",
      "status": "0x1",
      "cumulativeGasUsed": "0x43ad9",
      "logs": [
        {
          "address": "0x5884ad2f920c162cfbbacc88c9c51aa75ec09e02",
          "topics": [
            "0x8c5be1e5ebec7d5bd14f71427d1e84f3dd0314c0f7b2291e5b200ac8c7c3b925",
            "0x000000000000000000000000e8e8272b7574f5248eddf28aaf882db89474af6c",
            "0x0000000000000000000000006c2fc2923f225a207f26e380cda1ecec09d4ffe7"
          ],
          "data": "0x000000000000000000000000000000000000000000000000b469471f80140000",
          "blockHash": "0xc525150d4edd703b358eae5c29dfcf60ef3b34781bc2e20b101e5196bd7d73e3",
          "blockNumber": "0x365c5f6",
          "blockTimestamp": "0x6a0cf705",
          "transactionHash": "0xce538fb9429f85a51f9de0288c9591fd141c44bf3b7ee092e1911cd8d2a2433e",
          "transactionIndex": "0x5",
          "logIndex": "0x4",
          "removed": false
        }
      ],
      "logsBloom": "0x00000000000000000000200000000000000000000000000000000000000000000000000000000000000000000000000000000000000000000020000000200000000000000000000002000000000000000000000000000000000000000000000000000000000000000000000000000000000000000000000000000000000000000000000000000000000000000000000000000000000004000000000000000000020000000000000000000000000000000000000000000000000001000000000000000000000000000000000000400000000000022000000000000000000000000010000000000000000000000000000000000000000000000000000000000000",
      "transactionHash": "0xce538fb9429f85a51f9de0288c9591fd141c44bf3b7ee092e1911cd8d2a2433e",
      "transactionIndex": "0x5",
      "blockHash": "0xc525150d4edd703b358eae5c29dfcf60ef3b34781bc2e20b101e5196bd7d73e3",
      "blockNumber": "0x365c5f6",
      "gasUsed": "0x10349",
      "effectiveGasPrice": "0x989680",
      "from": "0xe8e8272b7574f5248eddf28aaf882db89474af6c",
      "to": "0x5884ad2f920c162cfbbacc88c9c51aa75ec09e02",
      "contractAddress": null
    },
    {
      "type": "0x2",
      "status": "0x1",
      "cumulativeGasUsed": "0x53e22",
      "logs": [
        {
          "address": "0xc9f9c86933092bbbfff3ccb4b105a4a94bf3bd4e",
          "topics": [
            "0x8c5be1e5ebec7d5bd14f71427d1e84f3dd0314c0f7b2291e5b200ac8c7c3b925",
            "0x000000000000000000000000e8e8272b7574f5248eddf28aaf882db89474af6c",
            "0x0000000000000000000000006c2fc2923f225a207f26e380cda1ecec09d4ffe7"
          ],
          "data": "0x0000000000000000000000000000000000000000000000008ac7230489e80000",
          "blockHash": "0xc525150d4edd703b358eae5c29dfcf60ef3b34781bc2e20b101e5196bd7d73e3",
          "blockNumber": "0x365c5f6",
          "blockTimestamp": "0x6a0cf705",
          "transactionHash": "0x1ccdc9600d7570bae43d3e08bd02f8490e3a3c50ec6dc3f59f59b42fd69cb16f",
          "transactionIndex": "0x6",
          "logIndex": "0x5",
          "removed": false
        }
      ],
      "logsBloom": "0x00000000000000000000200000000000000000000000000000001000000000000000000000000000000000000000000000000000000000000000000000200000000000000000000002000000000000000000000000000000000000000000000000000000000000000000000000000000000000000000000000000000000000000000000000000000000000000000000000000000000000000000000000000000020000000000000000000000000000000000000000000000000001000000000000000000000000000000000000400000000000020000000000000000000000002010000000000000000000000000000008000000000000000000000000000000",
      "transactionHash": "0x1ccdc9600d7570bae43d3e08bd02f8490e3a3c50ec6dc3f59f59b42fd69cb16f",
      "transactionIndex": "0x6",
      "blockHash": "0xc525150d4edd703b358eae5c29dfcf60ef3b34781bc2e20b101e5196bd7d73e3",
      "blockNumber": "0x365c5f6",
      "gasUsed": "0x10349",
      "effectiveGasPrice": "0x989680",
      "from": "0xe8e8272b7574f5248eddf28aaf882db89474af6c",
      "to": "0xc9f9c86933092bbbfff3ccb4b105a4a94bf3bd4e",
      "contractAddress": null
    },
    {
      "type": "0x2",
      "status": "0x1",
      "cumulativeGasUsed": "0xa74ab",
      "logs": [
        {
          "address": "0xd8690c73988c593033de284a0eeed6bcf5c1ef25",
          "topics": [
            "0xddf252ad1be2c89b69c2b068fc378daa952ba7f163c4a11628f55a4df523b3ef",
            "0x000000000000000000000000e8e8272b7574f5248eddf28aaf882db89474af6c",
            "0x000000000000000000000000000000000000000000000000000000000000dead"
          ],
          "data": "0x00000000000000000000000000000000000000000000000022b1c8c1227a0000",
          "blockHash": "0xc525150d4edd703b358eae5c29dfcf60ef3b34781bc2e20b101e5196bd7d73e3",
          "blockNumber": "0x365c5f6",
          "blockTimestamp": "0x6a0cf705",
          "transactionHash": "0x1f90f99bfc7a823fe93fc6154430ef7604b6d9964e68b14fe042962621aaeee1",
          "transactionIndex": "0x7",
          "logIndex": "0x6",
          "removed": false
        },
        {
          "address": "0xd8690c73988c593033de284a0eeed6bcf5c1ef25",
          "topics": [
            "0xddf252ad1be2c89b69c2b068fc378daa952ba7f163c4a11628f55a4df523b3ef",
            "0x000000000000000000000000e8e8272b7574f5248eddf28aaf882db89474af6c",
            "0x00000000000000000000000068c89b8d5b860a08a884d1a0c833baf8f241c8f1"
          ],
          "data": "0x00000000000000000000000000000000000000000000000022b1c8c1227a0000",
          "blockHash": "0xc525150d4edd703b358eae5c29dfcf60ef3b34781bc2e20b101e5196bd7d73e3",
          "blockNumber": "0x365c5f6",
          "blockTimestamp": "0x6a0cf705",
          "transactionHash": "0x1f90f99bfc7a823fe93fc6154430ef7604b6d9964e68b14fe042962621aaeee1",
          "transactionIndex": "0x7",
          "logIndex": "0x7",
          "removed": false
        },
        {
          "address": "0x68c89b8d5b860a08a884d1a0c833baf8f241c8f1",
          "topics": [
            "0xac24935fd910bc682b5ccb1a07b718cadf8cf2f6d1404c4f3ddc3662dae40e29",
            "0x0000000000000000000000006c2fc2923f225a207f26e380cda1ecec09d4ffe7"
          ],
          "data": "0x00000000000000000000000000000000000000000000000022b1c8c1227a0000",
          "blockHash": "0xc525150d4edd703b358eae5c29dfcf60ef3b34781bc2e20b101e5196bd7d73e3",
          "blockNumber": "0x365c5f6",
          "blockTimestamp": "0x6a0cf705",
          "transactionHash": "0x1f90f99bfc7a823fe93fc6154430ef7604b6d9964e68b14fe042962621aaeee1",
          "transactionIndex": "0x7",
          "logIndex": "0x8",
          "removed": false
        },
        {
          "address": "0x5884ad2f920c162cfbbacc88c9c51aa75ec09e02",
          "topics": [
            "0xddf252ad1be2c89b69c2b068fc378daa952ba7f163c4a11628f55a4df523b3ef",
            "0x000000000000000000000000e8e8272b7574f5248eddf28aaf882db89474af6c",
            "0x0000000000000000000000006c2fc2923f225a207f26e380cda1ecec09d4ffe7"
          ],
          "data": "0x000000000000000000000000000000000000000000000000b469471f80140000",
          "blockHash": "0xc525150d4edd703b358eae5c29dfcf60ef3b34781bc2e20b101e5196bd7d73e3",
          "blockNumber": "0x365c5f6",
          "blockTimestamp": "0x6a0cf705",
          "transactionHash": "0x1f90f99bfc7a823fe93fc6154430ef7604b6d9964e68b14fe042962621aaeee1",
          "transactionIndex": "0x7",
          "logIndex": "0x9",
          "removed": false
        },
        {
          "address": "0x5884ad2f920c162cfbbacc88c9c51aa75ec09e02",
          "topics": [
            "0x37e7f0db430edc9dd31bc66f25f8449353aa0818f503b906747dd8f286cd3802",
            "0x000000000000000000000000e8e8272b7574f5248eddf28aaf882db89474af6c",
            "0x0000000000000000000000006c2fc2923f225a207f26e380cda1ecec09d4ffe7"
          ],
          "data": "0x000000000000000000000000000000000000000000000000b469471f80140000000000000000000000000000000000000000000000000000b469471f80140000",
          "blockHash": "0xc525150d4edd703b358eae5c29dfcf60ef3b34781bc2e20b101e5196bd7d73e3",
          "blockNumber": "0x365c5f6",
          "blockTimestamp": "0x6a0cf705",
          "transactionHash": "0x1f90f99bfc7a823fe93fc6154430ef7604b6d9964e68b14fe042962621aaeee1",
          "transactionIndex": "0x7",
          "logIndex": "0xa",
          "removed": false
        },
        {
          "address": "0xc9f9c86933092bbbfff3ccb4b105a4a94bf3bd4e",
          "topics": [
            "0xddf252ad1be2c89b69c2b068fc378daa952ba7f163c4a11628f55a4df523b3ef",
            "0x000000000000000000000000e8e8272b7574f5248eddf28aaf882db89474af6c",
            "0x0000000000000000000000006c2fc2923f225a207f26e380cda1ecec09d4ffe7"
          ],
          "data": "0x0000000000000000000000000000000000000000000000008ac7230489e80000",
          "blockHash": "0xc525150d4edd703b358eae5c29dfcf60ef3b34781bc2e20b101e5196bd7d73e3",
          "blockNumber": "0x365c5f6",
          "blockTimestamp": "0x6a0cf705",
          "transactionHash": "0x1f90f99bfc7a823fe93fc6154430ef7604b6d9964e68b14fe042962621aaeee1",
          "transactionIndex": "0x7",
          "logIndex": "0xb",
          "removed": false
        },
        {
          "address": "0xc9f9c86933092bbbfff3ccb4b105a4a94bf3bd4e",
          "topics": [
            "0x37e7f0db430edc9dd31bc66f25f8449353aa0818f503b906747dd8f286cd3802",
            "0x000000000000000000000000e8e8272b7574f5248eddf28aaf882db89474af6c",
            "0x0000000000000000000000006c2fc2923f225a207f26e380cda1ecec09d4ffe7"
          ],
          "data": "0x0000000000000000000000000000000000000000000000008ac7230489e800000000000000000000000000000000000000000000000000008ac7230489e80000",
          "blockHash": "0xc525150d4edd703b358eae5c29dfcf60ef3b34781bc2e20b101e5196bd7d73e3",
          "blockNumber": "0x365c5f6",
          "blockTimestamp": "0x6a0cf705",
          "transactionHash": "0x1f90f99bfc7a823fe93fc6154430ef7604b6d9964e68b14fe042962621aaeee1",
          "transactionIndex": "0x7",
          "logIndex": "0xc",
          "removed": false
        },
        {
          "address": "0x6c2fc2923f225a207f26e380cda1ecec09d4ffe7",
          "topics": [
            "0xddf252ad1be2c89b69c2b068fc378daa952ba7f163c4a11628f55a4df523b3ef",
            "0x0000000000000000000000000000000000000000000000000000000000000000",
            "0x000000000000000000000000e8e8272b7574f5248eddf28aaf882db89474af6c"
          ],
          "data": "0x0000000000000000000000000000000000000000000000009e3b2b150aa4254f",
          "blockHash": "0xc525150d4edd703b358eae5c29dfcf60ef3b34781bc2e20b101e5196bd7d73e3",
          "blockNumber": "0x365c5f6",
          "blockTimestamp": "0x6a0cf705",
          "transactionHash": "0x1f90f99bfc7a823fe93fc6154430ef7604b6d9964e68b14fe042962621aaeee1",
          "transactionIndex": "0x7",
          "logIndex": "0xd",
          "removed": false
        },
        {
          "address": "0x6c2fc2923f225a207f26e380cda1ecec09d4ffe7",
          "topics": [
            "0x64b83944e79c3ce8d4c297411de637c3e102d064677aac0c163976ebdcd6f50e",
            "0x000000000000000000000000e8e8272b7574f5248eddf28aaf882db89474af6c"
          ],
          "data": "0x000000000000000000000000000000000000000000000000b469471f801400000000000000000000000000000000000000000000000000008ac7230489e800000000000000000000000000000000000000000000000000009e3b2b150aa4254f",
          "blockHash": "0xc525150d4edd703b358eae5c29dfcf60ef3b34781bc2e20b101e5196bd7d73e3",
          "blockNumber": "0x365c5f6",
          "blockTimestamp": "0x6a0cf705",
          "transactionHash": "0x1f90f99bfc7a823fe93fc6154430ef7604b6d9964e68b14fe042962621aaeee1",
          "transactionIndex": "0x7",
          "logIndex": "0xe",
          "removed": false
        }
      ],
      "logsBloom": "0x00000000000010000000200000000000000000080000000000001000000000000000000000000000000000000000000001000000080000000020000000000000000001000008010202000008800000000000200000000000000000000000000000000000020000000000001000000800000000000000000040001010000000000000000040000000000004000008000000000000000004000200000000001000020000000000000000000000000000000000008000000000000001000000000000000402000000000000000400400000008000022000000000000000020020002000000000000000000000000000000048000000000000000000000000000000",
      "transactionHash": "0x1f90f99bfc7a823fe93fc6154430ef7604b6d9964e68b14fe042962621aaeee1",
      "transactionIndex": "0x7",
      "blockHash": "0xc525150d4edd703b358eae5c29dfcf60ef3b34781bc2e20b101e5196bd7d73e3",
      "blockNumber": "0x365c5f6",
      "gasUsed": "0x53689",
      "effectiveGasPrice": "0x989680",
      "from": "0xe8e8272b7574f5248eddf28aaf882db89474af6c",
      "to": "0x6c2fc2923f225a207f26e380cda1ecec09d4ffe7",
      "contractAddress": null
    },
    {
      "type": "0x2",
      "status": "0x1",
      "cumulativeGasUsed": "0xb77f4",
      "logs": [
        {
          "address": "0x3b8262a63d25f0477c4dde23f83cfe22cb768c93",
          "topics": [
            "0x8c5be1e5ebec7d5bd14f71427d1e84f3dd0314c0f7b2291e5b200ac8c7c3b925",
            "0x000000000000000000000000e8e8272b7574f5248eddf28aaf882db89474af6c",
            "0x0000000000000000000000008a7564cb7638767dfeb703c9050f19e1c398c325"
          ],
          "data": "0x0000000000000000000000000000000000000000000000001bc16d674ec80000",
          "blockHash": "0xc525150d4edd703b358eae5c29dfcf60ef3b34781bc2e20b101e5196bd7d73e3",
          "blockNumber": "0x365c5f6",
          "blockTimestamp": "0x6a0cf705",
          "transactionHash": "0xe54415d364b28385c5062d04301fdbeca4e522b56b20da8f1c1c0c4828a67b70",
          "transactionIndex": "0x8",
          "logIndex": "0xf",
          "removed": false
        }
      ],
      "logsBloom": "0x01000000000002000000000000000000000000000000000000000000000000000000000000000000000000000000000000000000000000000000000000200000000000000000000002000000000000000000000000000000000000000000000000000000000000000000000001000000000000000000000000000000000000000000000800000000000000000000000000000000000000000800000000000000020000000000000000000000000000000000000000000000000001000000004000000000000000000000000000000000000000000000000000000000000000000010000000000000000000000000000000000000000000000000000000000000",
      "transactionHash": "0xe54415d364b28385c5062d04301fdbeca4e522b56b20da8f1c1c0c4828a67b70",
      "transactionIndex": "0x8",
      "blockHash": "0xc525150d4edd703b358eae5c29dfcf60ef3b34781bc2e20b101e5196bd7d73e3",
      "blockNumber": "0x365c5f6",
      "gasUsed": "0x10349",
      "effectiveGasPrice": "0x989680",
      "from": "0xe8e8272b7574f5248eddf28aaf882db89474af6c",
      "to": "0x3b8262a63d25f0477c4dde23f83cfe22cb768c93",
      "contractAddress": null
    },
    {
      "type": "0x2",
      "status": "0x1",
      "cumulativeGasUsed": "0xc7b3d",
      "logs": [
        {
          "address": "0x5884ad2f920c162cfbbacc88c9c51aa75ec09e02",
          "topics": [
            "0x8c5be1e5ebec7d5bd14f71427d1e84f3dd0314c0f7b2291e5b200ac8c7c3b925",
            "0x000000000000000000000000e8e8272b7574f5248eddf28aaf882db89474af6c",
            "0x0000000000000000000000008a7564cb7638767dfeb703c9050f19e1c398c325"
          ],
          "data": "0x0000000000000000000000000000000000000000000000008ac7230489e80000",
          "blockHash": "0xc525150d4edd703b358eae5c29dfcf60ef3b34781bc2e20b101e5196bd7d73e3",
          "blockNumber": "0x365c5f6",
          "blockTimestamp": "0x6a0cf705",
          "transactionHash": "0x0147d13f2957566be78b368bcdf4b10d1792f8a5c6b56979d96508c5576a10fd",
          "transactionIndex": "0x9",
          "logIndex": "0x10",
          "removed": false
        }
      ],
      "logsBloom": "0x01000000000000000000000000000000000000000000000000000000000000000000000000000000000000000000000000000000000000000020000000200000000000000000000002000000000000000000000000000000000000000000000000000000000000000000000001000000000000000000000000000000000000000000000800000000000000000000000000000000000004000000000000000000020000000000000000000000000000000000000000000000000001000000000000000000000000000000000000000000000000002000000000000000000000000010000000000000000000000000000000000000000000000000000000000000",
      "transactionHash": "0x0147d13f2957566be78b368bcdf4b10d1792f8a5c6b56979d96508c5576a10fd",
      "transactionIndex": "0x9",
      "blockHash": "0xc525150d4edd703b358eae5c29dfcf60ef3b34781bc2e20b101e5196bd7d73e3",
      "blockNumber": "0x365c5f6",
      "gasUsed": "0x10349",
      "effectiveGasPrice": "0x989680",
      "from": "0xe8e8272b7574f5248eddf28aaf882db89474af6c",
      "to": "0x5884ad2f920c162cfbbacc88c9c51aa75ec09e02",
      "contractAddress": null
    },
    {
      "type": "0x2",
      "status": "0x1",
      "cumulativeGasUsed": "0x11b924",
      "logs": [
        {
          "address": "0xd8690c73988c593033de284a0eeed6bcf5c1ef25",
          "topics": [
            "0xddf252ad1be2c89b69c2b068fc378daa952ba7f163c4a11628f55a4df523b3ef",
            "0x000000000000000000000000e8e8272b7574f5248eddf28aaf882db89474af6c",
            "0x000000000000000000000000000000000000000000000000000000000000dead"
          ],
          "data": "0x00000000000000000000000000000000000000000000000022b1c8c1227a0000",
          "blockHash": "0xc525150d4edd703b358eae5c29dfcf60ef3b34781bc2e20b101e5196bd7d73e3",
          "blockNumber": "0x365c5f6",
          "blockTimestamp": "0x6a0cf705",
          "transactionHash": "0x7d698253de76a1c8a478f9c5dcdbf83d32fbd1f436ebcd737b5e46f0f6bc3716",
          "transactionIndex": "0xa",
          "logIndex": "0x11",
          "removed": false
        },
        {
          "address": "0xd8690c73988c593033de284a0eeed6bcf5c1ef25",
          "topics": [
            "0xddf252ad1be2c89b69c2b068fc378daa952ba7f163c4a11628f55a4df523b3ef",
            "0x000000000000000000000000e8e8272b7574f5248eddf28aaf882db89474af6c",
            "0x00000000000000000000000068c89b8d5b860a08a884d1a0c833baf8f241c8f1"
          ],
          "data": "0x00000000000000000000000000000000000000000000000022b1c8c1227a0000",
          "blockHash": "0xc525150d4edd703b358eae5c29dfcf60ef3b34781bc2e20b101e5196bd7d73e3",
          "blockNumber": "0x365c5f6",
          "blockTimestamp": "0x6a0cf705",
          "transactionHash": "0x7d698253de76a1c8a478f9c5dcdbf83d32fbd1f436ebcd737b5e46f0f6bc3716",
          "transactionIndex": "0xa",
          "logIndex": "0x12",
          "removed": false
        },
        {
          "address": "0x68c89b8d5b860a08a884d1a0c833baf8f241c8f1",
          "topics": [
            "0xac24935fd910bc682b5ccb1a07b718cadf8cf2f6d1404c4f3ddc3662dae40e29",
            "0x0000000000000000000000008a7564cb7638767dfeb703c9050f19e1c398c325"
          ],
          "data": "0x00000000000000000000000000000000000000000000000022b1c8c1227a0000",
          "blockHash": "0xc525150d4edd703b358eae5c29dfcf60ef3b34781bc2e20b101e5196bd7d73e3",
          "blockNumber": "0x365c5f6",
          "blockTimestamp": "0x6a0cf705",
          "transactionHash": "0x7d698253de76a1c8a478f9c5dcdbf83d32fbd1f436ebcd737b5e46f0f6bc3716",
          "transactionIndex": "0xa",
          "logIndex": "0x13",
          "removed": false
        },
        {
          "address": "0x3b8262a63d25f0477c4dde23f83cfe22cb768c93",
          "topics": [
            "0xddf252ad1be2c89b69c2b068fc378daa952ba7f163c4a11628f55a4df523b3ef",
            "0x000000000000000000000000e8e8272b7574f5248eddf28aaf882db89474af6c",
            "0x0000000000000000000000008a7564cb7638767dfeb703c9050f19e1c398c325"
          ],
          "data": "0x0000000000000000000000000000000000000000000000001bc16d674ec80000",
          "blockHash": "0xc525150d4edd703b358eae5c29dfcf60ef3b34781bc2e20b101e5196bd7d73e3",
          "blockNumber": "0x365c5f6",
          "blockTimestamp": "0x6a0cf705",
          "transactionHash": "0x7d698253de76a1c8a478f9c5dcdbf83d32fbd1f436ebcd737b5e46f0f6bc3716",
          "transactionIndex": "0xa",
          "logIndex": "0x14",
          "removed": false
        },
        {
          "address": "0x3b8262a63d25f0477c4dde23f83cfe22cb768c93",
          "topics": [
            "0x37e7f0db430edc9dd31bc66f25f8449353aa0818f503b906747dd8f286cd3802",
            "0x000000000000000000000000e8e8272b7574f5248eddf28aaf882db89474af6c",
            "0x0000000000000000000000008a7564cb7638767dfeb703c9050f19e1c398c325"
          ],
          "data": "0x0000000000000000000000000000000000000000000000001bc16d674ec800000000000000000000000000000000000000000000000000001bc16d674ec80000",
          "blockHash": "0xc525150d4edd703b358eae5c29dfcf60ef3b34781bc2e20b101e5196bd7d73e3",
          "blockNumber": "0x365c5f6",
          "blockTimestamp": "0x6a0cf705",
          "transactionHash": "0x7d698253de76a1c8a478f9c5dcdbf83d32fbd1f436ebcd737b5e46f0f6bc3716",
          "transactionIndex": "0xa",
          "logIndex": "0x15",
          "removed": false
        },
        {
          "address": "0x5884ad2f920c162cfbbacc88c9c51aa75ec09e02",
          "topics": [
            "0xddf252ad1be2c89b69c2b068fc378daa952ba7f163c4a11628f55a4df523b3ef",
            "0x000000000000000000000000e8e8272b7574f5248eddf28aaf882db89474af6c",
            "0x0000000000000000000000008a7564cb7638767dfeb703c9050f19e1c398c325"
          ],
          "data": "0x0000000000000000000000000000000000000000000000008ac7230489e80000",
          "blockHash": "0xc525150d4edd703b358eae5c29dfcf60ef3b34781bc2e20b101e5196bd7d73e3",
          "blockNumber": "0x365c5f6",
          "blockTimestamp": "0x6a0cf705",
          "transactionHash": "0x7d698253de76a1c8a478f9c5dcdbf83d32fbd1f436ebcd737b5e46f0f6bc3716",
          "transactionIndex": "0xa",
          "logIndex": "0x16",
          "removed": false
        },
        {
          "address": "0x5884ad2f920c162cfbbacc88c9c51aa75ec09e02",
          "topics": [
            "0x37e7f0db430edc9dd31bc66f25f8449353aa0818f503b906747dd8f286cd3802",
            "0x000000000000000000000000e8e8272b7574f5248eddf28aaf882db89474af6c",
            "0x0000000000000000000000008a7564cb7638767dfeb703c9050f19e1c398c325"
          ],
          "data": "0x0000000000000000000000000000000000000000000000008ac7230489e800000000000000000000000000000000000000000000000000008ac7230489e80000",
          "blockHash": "0xc525150d4edd703b358eae5c29dfcf60ef3b34781bc2e20b101e5196bd7d73e3",
          "blockNumber": "0x365c5f6",
          "blockTimestamp": "0x6a0cf705",
          "transactionHash": "0x7d698253de76a1c8a478f9c5dcdbf83d32fbd1f436ebcd737b5e46f0f6bc3716",
          "transactionIndex": "0xa",
          "logIndex": "0x17",
          "removed": false
        },
        {
          "address": "0x8a7564cb7638767dfeb703c9050f19e1c398c325",
          "topics": [
            "0xddf252ad1be2c89b69c2b068fc378daa952ba7f163c4a11628f55a4df523b3ef",
            "0x0000000000000000000000000000000000000000000000000000000000000000",
            "0x000000000000000000000000e8e8272b7574f5248eddf28aaf882db89474af6c"
          ],
          "data": "0x0000000000000000000000000000000000000000000000003e1037f4e9009300",
          "blockHash": "0xc525150d4edd703b358eae5c29dfcf60ef3b34781bc2e20b101e5196bd7d73e3",
          "blockNumber": "0x365c5f6",
          "blockTimestamp": "0x6a0cf705",
          "transactionHash": "0x7d698253de76a1c8a478f9c5dcdbf83d32fbd1f436ebcd737b5e46f0f6bc3716",
          "transactionIndex": "0xa",
          "logIndex": "0x18",
          "removed": false
        },
        {
          "address": "0x8a7564cb7638767dfeb703c9050f19e1c398c325",
          "topics": [
            "0x64b83944e79c3ce8d4c297411de637c3e102d064677aac0c163976ebdcd6f50e",
            "0x000000000000000000000000e8e8272b7574f5248eddf28aaf882db89474af6c"
          ],
          "data": "0x0000000000000000000000000000000000000000000000001bc16d674ec800000000000000000000000000000000000000000000000000008ac7230489e800000000000000000000000000000000000000000000000000003e1037f4e9009300",
          "blockHash": "0xc525150d4edd703b358eae5c29dfcf60ef3b34781bc2e20b101e5196bd7d73e3",
          "blockNumber": "0x365c5f6",
          "blockTimestamp": "0x6a0cf705",
          "transactionHash": "0x7d698253de76a1c8a478f9c5dcdbf83d32fbd1f436ebcd737b5e46f0f6bc3716",
          "transactionIndex": "0xa",
          "logIndex": "0x19",
          "removed": false
        }
      ],
      "logsBloom": "0x01000000000012000000000000000000000000080000000000000000000000000000000000000000000000000000000001000000080000000020000000000000000001000008000002000008800000000000200000000000000000000000000000000000020000000000001001000800000000000000000040001010000000000000000840000000000004000008000000000000000004000a00000000001000020000000000000000000000000000000000008000000000000001000000004000000402000000000000000400000000008000002000000000000100020020000000000000000000000400000000000000000000000000000000000000000400",
      "transactionHash": "0x7d698253de76a1c8a478f9c5dcdbf83d32fbd1f436ebcd737b5e46f0f6bc3716",
      "transactionIndex": "0xa",
      "blockHash": "0xc525150d4edd703b358eae5c29dfcf60ef3b34781bc2e20b101e5196bd7d73e3",
      "blockNumber": "0x365c5f6",
      "gasUsed": "0x53de7",
      "effectiveGasPrice": "0x989680",
      "from": "0xe8e8272b7574f5248eddf28aaf882db89474af6c",
      "to": "0x8a7564cb7638767dfeb703c9050f19e1c398c325",
      "contractAddress": null
    },
    {
      "type": "0x2",
      "status": "0x1",
      "cumulativeGasUsed": "0x12bc79",
      "logs": [
        {
          "address": "0x1fbe1a0e43594b3455993b5de5fd0a7a266298d0",
          "topics": [
            "0x8c5be1e5ebec7d5bd14f71427d1e84f3dd0314c0f7b2291e5b200ac8c7c3b925",
            "0x000000000000000000000000e8e8272b7574f5248eddf28aaf882db89474af6c",
            "0x0000000000000000000000006879852c5da24993e76d8c69a4ada942cb76eb89"
          ],
          "data": "0x0000000000000000000000000000000000000000000000020f5b1eaad8d80000",
          "blockHash": "0xc525150d4edd703b358eae5c29dfcf60ef3b34781bc2e20b101e5196bd7d73e3",
          "blockNumber": "0x365c5f6",
          "blockTimestamp": "0x6a0cf705",
          "transactionHash": "0x918749b65be827599a98fb4696daebd7423ca403d1696c303953f5f05e20740b",
          "transactionIndex": "0xb",
          "logIndex": "0x1a",
          "removed": false
        }
      ],
      "logsBloom": "0x00000000000000000000000000000000000000000000000000000000000000000000000000000000000000000000000000000000000000000000000000200000000000000000000002000000000000000000000000000000000000000000000000000000000000000000040000000400000000000000000000000000000000000000000000000000000000800000000000000000000000000000000000000000020000000000000000000000000000000000000000000000000001000000000000000000000000000000000000000000000000000000000000000000000008000010000000000000000000000000000000000000000000000000000400000800",
      "transactionHash": "0x918749b65be827599a98fb4696daebd7423ca403d1696c303953f5f05e20740b",
      "transactionIndex": "0xb",
      "blockHash": "0xc525150d4edd703b358eae5c29dfcf60ef3b34781bc2e20b101e5196bd7d73e3",
      "blockNumber": "0x365c5f6",
      "gasUsed": "0x10355",
      "effectiveGasPrice": "0x989680",
      "from": "0xe8e8272b7574f5248eddf28aaf882db89474af6c",
      "to": "0x1fbe1a0e43594b3455993b5de5fd0a7a266298d0",
      "contractAddress": null
    },
    {
      "type": "0x2",
      "status": "0x1",
      "cumulativeGasUsed": "0x13bfc2",
      "logs": [
        {
          "address": "0x71178bac73cbeb415514eb542a8995b82669778d",
          "topics": [
            "0x8c5be1e5ebec7d5bd14f71427d1e84f3dd0314c0f7b2291e5b200ac8c7c3b925",
            "0x000000000000000000000000e8e8272b7574f5248eddf28aaf882db89474af6c",
            "0x0000000000000000000000006879852c5da24993e76d8c69a4ada942cb76eb89"
          ],
          "data": "0x0000000000000000000000000000000000000000000000008ac7230489e80000",
          "blockHash": "0xc525150d4edd703b358eae5c29dfcf60ef3b34781bc2e20b101e5196bd7d73e3",
          "blockNumber": "0x365c5f6",
          "blockTimestamp": "0x6a0cf705",
          "transactionHash": "0xd5a7b5affc98e32ed4133cd9eecd330079f59a8b0a37a486440b74f7948205e2",
          "transactionIndex": "0xc",
          "logIndex": "0x1b",
          "removed": false
        }
      ],
      "logsBloom": "0x00000000000080000000000000000000000000000000000000000000000000000000000000000000000000000000000000000000000000000000000000200000000000000000000002000000000000000000000000000000000000000000000000000000000000000000040000000400000000000000000000000000000000000000000000000000000000800000000000000000000000000000000000000000020000000000000000000000000000000000000000000000000001000000000000000000000000000000000000000000000000000000000000000000000000000010000000000000000000040000000000000000080000000000000000000000",
      "transactionHash": "0xd5a7b5affc98e32ed4133cd9eecd330079f59a8b0a37a486440b74f7948205e2",
      "transactionIndex": "0xc",
      "blockHash": "0xc525150d4edd703b358eae5c29dfcf60ef3b34781bc2e20b101e5196bd7d73e3",
      "blockNumber": "0x365c5f6",
      "gasUsed": "0x10349",
      "effectiveGasPrice": "0x989680",
      "from": "0xe8e8272b7574f5248eddf28aaf882db89474af6c",
      "to": "0x71178bac73cbeb415514eb542a8995b82669778d",
      "contractAddress": null
    },
    {
      "type": "0x2",
      "status": "0x1",
      "cumulativeGasUsed": "0x190c49",
      "logs": [
        {
          "address": "0xd8690c73988c593033de284a0eeed6bcf5c1ef25",
          "topics": [
            "0xddf252ad1be2c89b69c2b068fc378daa952ba7f163c4a11628f55a4df523b3ef",
            "0x000000000000000000000000e8e8272b7574f5248eddf28aaf882db89474af6c",
            "0x000000000000000000000000000000000000000000000000000000000000dead"
          ],
          "data": "0x00000000000000000000000000000000000000000000000022b1c8c1227a0000",
          "blockHash": "0xc525150d4edd703b358eae5c29dfcf60ef3b34781bc2e20b101e5196bd7d73e3",
          "blockNumber": "0x365c5f6",
          "blockTimestamp": "0x6a0cf705",
          "transactionHash": "0xf0f6a0f2223e350ae95547eeedadb617adfdcc1b6ab371e7ca6076a225711c3e",
          "transactionIndex": "0xd",
          "logIndex": "0x1c",
          "removed": false
        },
        {
          "address": "0xd8690c73988c593033de284a0eeed6bcf5c1ef25",
          "topics": [
            "0xddf252ad1be2c89b69c2b068fc378daa952ba7f163c4a11628f55a4df523b3ef",
            "0x000000000000000000000000e8e8272b7574f5248eddf28aaf882db89474af6c",
            "0x00000000000000000000000068c89b8d5b860a08a884d1a0c833baf8f241c8f1"
          ],
          "data": "0x00000000000000000000000000000000000000000000000022b1c8c1227a0000",
          "blockHash": "0xc525150d4edd703b358eae5c29dfcf60ef3b34781bc2e20b101e5196bd7d73e3",
          "blockNumber": "0x365c5f6",
          "blockTimestamp": "0x6a0cf705",
          "transactionHash": "0xf0f6a0f2223e350ae95547eeedadb617adfdcc1b6ab371e7ca6076a225711c3e",
          "transactionIndex": "0xd",
          "logIndex": "0x1d",
          "removed": false
        },
        {
          "address": "0x68c89b8d5b860a08a884d1a0c833baf8f241c8f1",
          "topics": [
            "0xac24935fd910bc682b5ccb1a07b718cadf8cf2f6d1404c4f3ddc3662dae40e29",
            "0x0000000000000000000000006879852c5da24993e76d8c69a4ada942cb76eb89"
          ],
          "data": "0x00000000000000000000000000000000000000000000000022b1c8c1227a0000",
          "blockHash": "0xc525150d4edd703b358eae5c29dfcf60ef3b34781bc2e20b101e5196bd7d73e3",
          "blockNumber": "0x365c5f6",
          "blockTimestamp": "0x6a0cf705",
          "transactionHash": "0xf0f6a0f2223e350ae95547eeedadb617adfdcc1b6ab371e7ca6076a225711c3e",
          "transactionIndex": "0xd",
          "logIndex": "0x1e",
          "removed": false
        },
        {
          "address": "0x1fbe1a0e43594b3455993b5de5fd0a7a266298d0",
          "topics": [
            "0xddf252ad1be2c89b69c2b068fc378daa952ba7f163c4a11628f55a4df523b3ef",
            "0x000000000000000000000000e8e8272b7574f5248eddf28aaf882db89474af6c",
            "0x0000000000000000000000006879852c5da24993e76d8c69a4ada942cb76eb89"
          ],
          "data": "0x0000000000000000000000000000000000000000000000020f5b1eaad8d80000",
          "blockHash": "0xc525150d4edd703b358eae5c29dfcf60ef3b34781bc2e20b101e5196bd7d73e3",
          "blockNumber": "0x365c5f6",
          "blockTimestamp": "0x6a0cf705",
          "transactionHash": "0xf0f6a0f2223e350ae95547eeedadb617adfdcc1b6ab371e7ca6076a225711c3e",
          "transactionIndex": "0xd",
          "logIndex": "0x1f",
          "removed": false
        },
        {
          "address": "0x1fbe1a0e43594b3455993b5de5fd0a7a266298d0",
          "topics": [
            "0x37e7f0db430edc9dd31bc66f25f8449353aa0818f503b906747dd8f286cd3802",
            "0x000000000000000000000000e8e8272b7574f5248eddf28aaf882db89474af6c",
            "0x0000000000000000000000006879852c5da24993e76d8c69a4ada942cb76eb89"
          ],
          "data": "0x0000000000000000000000000000000000000000000000020f5b1eaad8d800000000000000000000000000000000000000000000000000020f5b1eaad8d80000",
          "blockHash": "0xc525150d4edd703b358eae5c29dfcf60ef3b34781bc2e20b101e5196bd7d73e3",
          "blockNumber": "0x365c5f6",
          "blockTimestamp": "0x6a0cf705",
          "transactionHash": "0xf0f6a0f2223e350ae95547eeedadb617adfdcc1b6ab371e7ca6076a225711c3e",
          "transactionIndex": "0xd",
          "logIndex": "0x20",
          "removed": false
        },
        {
          "address": "0x71178bac73cbeb415514eb542a8995b82669778d",
          "topics": [
            "0xddf252ad1be2c89b69c2b068fc378daa952ba7f163c4a11628f55a4df523b3ef",
            "0x000000000000000000000000e8e8272b7574f5248eddf28aaf882db89474af6c",
            "0x0000000000000000000000006879852c5da24993e76d8c69a4ada942cb76eb89"
          ],
          "data": "0x0000000000000000000000000000000000000000000000008ac7230489e80000",
          "blockHash": "0xc525150d4edd703b358eae5c29dfcf60ef3b34781bc2e20b101e5196bd7d73e3",
          "blockNumber": "0x365c5f6",
          "blockTimestamp": "0x6a0cf705",
          "transactionHash": "0xf0f6a0f2223e350ae95547eeedadb617adfdcc1b6ab371e7ca6076a225711c3e",
          "transactionIndex": "0xd",
          "logIndex": "0x21",
          "removed": false
        },
        {
          "address": "0x71178bac73cbeb415514eb542a8995b82669778d",
          "topics": [
            "0x37e7f0db430edc9dd31bc66f25f8449353aa0818f503b906747dd8f286cd3802",
            "0x000000000000000000000000e8e8272b7574f5248eddf28aaf882db89474af6c",
            "0x0000000000000000000000006879852c5da24993e76d8c69a4ada942cb76eb89"
          ],
          "data": "0x0000000000000000000000000000000000000000000000008ac7230489e800000000000000000000000000000000000000000000000000008ac7230489e80000",
          "blockHash": "0xc525150d4edd703b358eae5c29dfcf60ef3b34781bc2e20b101e5196bd7d73e3",
          "blockNumber": "0x365c5f6",
          "blockTimestamp": "0x6a0cf705",
          "transactionHash": "0xf0f6a0f2223e350ae95547eeedadb617adfdcc1b6ab371e7ca6076a225711c3e",
          "transactionIndex": "0xd",
          "logIndex": "0x22",
          "removed": false
        },
        {
          "address": "0x6879852c5da24993e76d8c69a4ada942cb76eb89",
          "topics": [
            "0xddf252ad1be2c89b69c2b068fc378daa952ba7f163c4a11628f55a4df523b3ef",
            "0x0000000000000000000000000000000000000000000000000000000000000000",
            "0x000000000000000000000000e8e8272b7574f5248eddf28aaf882db89474af6c"
          ],
          "data": "0x0000000000000000000000000000000000000000000000010e8723a1ba3fbe85",
          "blockHash": "0xc525150d4edd703b358eae5c29dfcf60ef3b34781bc2e20b101e5196bd7d73e3",
          "blockNumber": "0x365c5f6",
          "blockTimestamp": "0x6a0cf705",
          "transactionHash": "0xf0f6a0f2223e350ae95547eeedadb617adfdcc1b6ab371e7ca6076a225711c3e",
          "transactionIndex": "0xd",
          "logIndex": "0x23",
          "removed": false
        },
        {
          "address": "0x6879852c5da24993e76d8c69a4ada942cb76eb89",
          "topics": [
            "0x64b83944e79c3ce8d4c297411de637c3e102d064677aac0c163976ebdcd6f50e",
            "0x000000000000000000000000e8e8272b7574f5248eddf28aaf882db89474af6c"
          ],
          "data": "0x0000000000000000000000000000000000000000000000020f5b1eaad8d800000000000000000000000000000000000000000000000000008ac7230489e800000000000000000000000000000000000000000000000000010e8723a1ba3fbe85",
          "blockHash": "0xc525150d4edd703b358eae5c29dfcf60ef3b34781bc2e20b101e5196bd7d73e3",
          "blockNumber": "0x365c5f6",
          "blockTimestamp": "0x6a0cf705",
          "transactionHash": "0xf0f6a0f2223e350ae95547eeedadb617adfdcc1b6ab371e7ca6076a225711c3e",
          "transactionIndex": "0xd",
          "logIndex": "0x24",
          "removed": false
        }
      ],
      "logsBloom": "0x00000000000090000000000000000000000000080000000000000000000000000000000000000000000000000000000001000000080000000000000000000000000001000008000002000008800000000000200000000800000000000000000000000000020000000000041000000c00000000000000000040001010000000000000000040000000000004800008002000000000000000000200000000001000020000000000800000000000000000000000008000000000000001000000000000000402000000000000000400000000008000000000000000000000020028000000000000000000000000040000000000000000080000000000000400000800",
      "transactionHash": "0xf0f6a0f2223e350ae95547eeedadb617adfdcc1b6ab371e7ca6076a225711c3e",
      "transactionIndex": "0xd",
      "blockHash": "0xc525150d4edd703b358eae5c29dfcf60ef3b34781bc2e20b101e5196bd7d73e3",
      "blockNumber": "0x365c5f6",
      "gasUsed": "0x54c87",
      "effectiveGasPrice": "0x989680",
      "from": "0xe8e8272b7574f5248eddf28aaf882db89474af6c",
      "to": "0x6879852c5da24993e76d8c69a4ada942cb76eb89",
      "contractAddress": null
    },
    {
      "type": "0x2",
      "status": "0x1",
      "cumulativeGasUsed": "0x1a0f92",
      "logs": [
        {
          "address": "0x3b8262a63d25f0477c4dde23f83cfe22cb768c93",
          "topics": [
            "0x8c5be1e5ebec7d5bd14f71427d1e84f3dd0314c0f7b2291e5b200ac8c7c3b925",
            "0x000000000000000000000000e8e8272b7574f5248eddf28aaf882db89474af6c",
            "0x0000000000000000000000005f8021925eb18b9243f8616a4547492e6c993ba2"
          ],
          "data": "0x0000000000000000000000000000000000000000000000008ac7230489e80000",
          "blockHash": "0xc525150d4edd703b358eae5c29dfcf60ef3b34781bc2e20b101e5196bd7d73e3",
          "blockNumber": "0x365c5f6",
          "blockTimestamp": "0x6a0cf705",
          "transactionHash": "0xf34d28a8db5d922feb5a0085df427a46036dcb0ee9c2b45dc0e6b0e9d68df1f6",
          "transactionIndex": "0xe",
          "logIndex": "0x25",
          "removed": false
        }
      ],
      "logsBloom": "0x00000000000002000000000000000000000000000000000000000000000000000000000000000000000000000000000000000000000000000000000000200000000000000000000002000000000000000000000000000000800000000000000000000000000000000000000000000000000000000000000000000000000000000000000000000000000000000000000000100000000000000800000000000000020000000000000000000000000000000000000000000000000001010000004000000000000000000000000000000000000000000000000000000000000000000010000000000000000000000000000000000000000000000000000000000000",
      "transactionHash": "0xf34d28a8db5d922feb5a0085df427a46036dcb0ee9c2b45dc0e6b0e9d68df1f6",
      "transactionIndex": "0xe",
      "blockHash": "0xc525150d4edd703b358eae5c29dfcf60ef3b34781bc2e20b101e5196bd7d73e3",
      "blockNumber": "0x365c5f6",
      "gasUsed": "0x10349",
      "effectiveGasPrice": "0x989680",
      "from": "0xe8e8272b7574f5248eddf28aaf882db89474af6c",
      "to": "0x3b8262a63d25f0477c4dde23f83cfe22cb768c93",
      "contractAddress": null
    },
    {
      "type": "0x2",
      "status": "0x1",
      "cumulativeGasUsed": "0x1b12e7",
      "logs": [
        {
          "address": "0xc9f9c86933092bbbfff3ccb4b105a4a94bf3bd4e",
          "topics": [
            "0x8c5be1e5ebec7d5bd14f71427d1e84f3dd0314c0f7b2291e5b200ac8c7c3b925",
            "0x000000000000000000000000e8e8272b7574f5248eddf28aaf882db89474af6c",
            "0x0000000000000000000000005f8021925eb18b9243f8616a4547492e6c993ba2"
          ],
          "data": "0x0000000000000000000000000000000000000000000000020f5b1eaad8d80000",
          "blockHash": "0xc525150d4edd703b358eae5c29dfcf60ef3b34781bc2e20b101e5196bd7d73e3",
          "blockNumber": "0x365c5f6",
          "blockTimestamp": "0x6a0cf705",
          "transactionHash": "0x75185ace2fd7403bb669aebde512e396fecb3a778247897204b036bdee20afbb",
          "transactionIndex": "0xf",
          "logIndex": "0x26",
          "removed": false
        }
      ],
      "logsBloom": "0x00000000000000000000000000000000000000000000000000001000000000000000000000000000000000000000000000000000000000000000000000200000000000000000000002000000000000000000000000000000800000000000000000000000000000000000000000000000000000000000000000000000000000000000000000000000000000000000000000100000000000000000000000000000020000000000000000000000000000000000000000000000000001010000000000000000000000000000000000000000000000000000000000000000000000002010000000000000000000000000000008000000000000000000000000000000",
      "transactionHash": "0x75185ace2fd7403bb669aebde512e396fecb3a778247897204b036bdee20afbb",
      "transactionIndex": "0xf",
      "blockHash": "0xc525150d4edd703b358eae5c29dfcf60ef3b34781bc2e20b101e5196bd7d73e3",
      "blockNumber": "0x365c5f6",
      "gasUsed": "0x10355",
      "effectiveGasPrice": "0x989680",
      "from": "0xe8e8272b7574f5248eddf28aaf882db89474af6c",
      "to": "0xc9f9c86933092bbbfff3ccb4b105a4a94bf3bd4e",
      "contractAddress": null
    },
    {
      "type": "0x2",
      "status": "0x1",
      "cumulativeGasUsed": "0x20693e",
      "logs": [
        {
          "address": "0xd8690c73988c593033de284a0eeed6bcf5c1ef25",
          "topics": [
            "0xddf252ad1be2c89b69c2b068fc378daa952ba7f163c4a11628f55a4df523b3ef",
            "0x000000000000000000000000e8e8272b7574f5248eddf28aaf882db89474af6c",
            "0x000000000000000000000000000000000000000000000000000000000000dead"
          ],
          "data": "0x00000000000000000000000000000000000000000000000022b1c8c1227a0000",
          "blockHash": "0xc525150d4edd703b358eae5c29dfcf60ef3b34781bc2e20b101e5196bd7d73e3",
          "blockNumber": "0x365c5f6",
          "blockTimestamp": "0x6a0cf705",
          "transactionHash": "0xede4684469e74e0fb929dfef294e70d771ffabd4672129efbd77042ad6377a98",
          "transactionIndex": "0x10",
          "logIndex": "0x27",
          "removed": false
        },
        {
          "address": "0xd8690c73988c593033de284a0eeed6bcf5c1ef25",
          "topics": [
            "0xddf252ad1be2c89b69c2b068fc378daa952ba7f163c4a11628f55a4df523b3ef",
            "0x000000000000000000000000e8e8272b7574f5248eddf28aaf882db89474af6c",
            "0x00000000000000000000000068c89b8d5b860a08a884d1a0c833baf8f241c8f1"
          ],
          "data": "0x00000000000000000000000000000000000000000000000022b1c8c1227a0000",
          "blockHash": "0xc525150d4edd703b358eae5c29dfcf60ef3b34781bc2e20b101e5196bd7d73e3",
          "blockNumber": "0x365c5f6",
          "blockTimestamp": "0x6a0cf705",
          "transactionHash": "0xede4684469e74e0fb929dfef294e70d771ffabd4672129efbd77042ad6377a98",
          "transactionIndex": "0x10",
          "logIndex": "0x28",
          "removed": false
        },
        {
          "address": "0x68c89b8d5b860a08a884d1a0c833baf8f241c8f1",
          "topics": [
            "0xac24935fd910bc682b5ccb1a07b718cadf8cf2f6d1404c4f3ddc3662dae40e29",
            "0x0000000000000000000000005f8021925eb18b9243f8616a4547492e6c993ba2"
          ],
          "data": "0x00000000000000000000000000000000000000000000000022b1c8c1227a0000",
          "blockHash": "0xc525150d4edd703b358eae5c29dfcf60ef3b34781bc2e20b101e5196bd7d73e3",
          "blockNumber": "0x365c5f6",
          "blockTimestamp": "0x6a0cf705",
          "transactionHash": "0xede4684469e74e0fb929dfef294e70d771ffabd4672129efbd77042ad6377a98",
          "transactionIndex": "0x10",
          "logIndex": "0x29",
          "removed": false
        },
        {
          "address": "0x3b8262a63d25f0477c4dde23f83cfe22cb768c93",
          "topics": [
            "0xddf252ad1be2c89b69c2b068fc378daa952ba7f163c4a11628f55a4df523b3ef",
            "0x000000000000000000000000e8e8272b7574f5248eddf28aaf882db89474af6c",
            "0x0000000000000000000000005f8021925eb18b9243f8616a4547492e6c993ba2"
          ],
          "data": "0x0000000000000000000000000000000000000000000000008ac7230489e80000",
          "blockHash": "0xc525150d4edd703b358eae5c29dfcf60ef3b34781bc2e20b101e5196bd7d73e3",
          "blockNumber": "0x365c5f6",
          "blockTimestamp": "0x6a0cf705",
          "transactionHash": "0xede4684469e74e0fb929dfef294e70d771ffabd4672129efbd77042ad6377a98",
          "transactionIndex": "0x10",
          "logIndex": "0x2a",
          "removed": false
        },
        {
          "address": "0x3b8262a63d25f0477c4dde23f83cfe22cb768c93",
          "topics": [
            "0x37e7f0db430edc9dd31bc66f25f8449353aa0818f503b906747dd8f286cd3802",
            "0x000000000000000000000000e8e8272b7574f5248eddf28aaf882db89474af6c",
            "0x0000000000000000000000005f8021925eb18b9243f8616a4547492e6c993ba2"
          ],
          "data": "0x0000000000000000000000000000000000000000000000008ac7230489e800000000000000000000000000000000000000000000000000008ac7230489e80000",
          "blockHash": "0xc525150d4edd703b358eae5c29dfcf60ef3b34781bc2e20b101e5196bd7d73e3",
          "blockNumber": "0x365c5f6",
          "blockTimestamp": "0x6a0cf705",
          "transactionHash": "0xede4684469e74e0fb929dfef294e70d771ffabd4672129efbd77042ad6377a98",
          "transactionIndex": "0x10",
          "logIndex": "0x2b",
          "removed": false
        },
        {
          "address": "0xc9f9c86933092bbbfff3ccb4b105a4a94bf3bd4e",
          "topics": [
            "0xddf252ad1be2c89b69c2b068fc378daa952ba7f163c4a11628f55a4df523b3ef",
            "0x000000000000000000000000e8e8272b7574f5248eddf28aaf882db89474af6c",
            "0x0000000000000000000000005f8021925eb18b9243f8616a4547492e6c993ba2"
          ],
          "data": "0x0000000000000000000000000000000000000000000000020f5b1eaad8d80000",
          "blockHash": "0xc525150d4edd703b358eae5c29dfcf60ef3b34781bc2e20b101e5196bd7d73e3",
          "blockNumber": "0x365c5f6",
          "blockTimestamp": "0x6a0cf705",
          "transactionHash": "0xede4684469e74e0fb929dfef294e70d771ffabd4672129efbd77042ad6377a98",
          "transactionIndex": "0x10",
          "logIndex": "0x2c",
          "removed": false
        },
        {
          "address": "0xc9f9c86933092bbbfff3ccb4b105a4a94bf3bd4e",
          "topics": [
            "0x37e7f0db430edc9dd31bc66f25f8449353aa0818f503b906747dd8f286cd3802",
            "0x000000000000000000000000e8e8272b7574f5248eddf28aaf882db89474af6c",
            "0x0000000000000000000000005f8021925eb18b9243f8616a4547492e6c993ba2"
          ],
          "data": "0x0000000000000000000000000000000000000000000000020f5b1eaad8d800000000000000000000000000000000000000000000000000020f5b1eaad8d80000",
          "blockHash": "0xc525150d4edd703b358eae5c29dfcf60ef3b34781bc2e20b101e5196bd7d73e3",
          "blockNumber": "0x365c5f6",
          "blockTimestamp": "0x6a0cf705",
          "transactionHash": "0xede4684469e74e0fb929dfef294e70d771ffabd4672129efbd77042ad6377a98",
          "transactionIndex": "0x10",
          "logIndex": "0x2d",
          "removed": false
        },
        {
          "address": "0x5f8021925eb18b9243f8616a4547492e6c993ba2",
          "topics": [
            "0xddf252ad1be2c89b69c2b068fc378daa952ba7f163c4a11628f55a4df523b3ef",
            "0x0000000000000000000000000000000000000000000000000000000000000000",
            "0x000000000000000000000000e8e8272b7574f5248eddf28aaf882db89474af6c"
          ],
          "data": "0x0000000000000000000000000000000000000000000000010e8723a1ba3fbe85",
          "blockHash": "0xc525150d4edd703b358eae5c29dfcf60ef3b34781bc2e20b101e5196bd7d73e3",
          "blockNumber": "0x365c5f6",
          "blockTimestamp": "0x6a0cf705",
          "transactionHash": "0xede4684469e74e0fb929dfef294e70d771ffabd4672129efbd77042ad6377a98",
          "transactionIndex": "0x10",
          "logIndex": "0x2e",
          "removed": false
        },
        {
          "address": "0x5f8021925eb18b9243f8616a4547492e6c993ba2",
          "topics": [
            "0x64b83944e79c3ce8d4c297411de637c3e102d064677aac0c163976ebdcd6f50e",
            "0x000000000000000000000000e8e8272b7574f5248eddf28aaf882db89474af6c"
          ],
          "data": "0x0000000000000000000000000000000000000000000000008ac7230489e800000000000000000000000000000000000000000000000000020f5b1eaad8d800000000000000000000000000000000000000000000000000010e8723a1ba3fbe85",
          "blockHash": "0xc525150d4edd703b358eae5c29dfcf60ef3b34781bc2e20b101e5196bd7d73e3",
          "blockNumber": "0x365c5f6",
          "blockTimestamp": "0x6a0cf705",
          "transactionHash": "0xede4684469e74e0fb929dfef294e70d771ffabd4672129efbd77042ad6377a98",
          "transactionIndex": "0x10",
          "logIndex": "0x2f",
          "removed": false
        }
      ],
      "logsBloom": "0x00000000000012000000000000000000000000080000000000001000000000000000000000000000000000000000000001000000080000000000000000000000000001000008000002000008800000000000200000000000800000000000000000000000020000000000001000000800000000000400000040001010000000000000000040000000000084000008000000100000000000000a00000000001000020000000000001000000000000000000000008000000000000001010000004000000402000000000000000400000000008000000000000000000000020020002000000000000000000000000000000008000000000000000000000000000000",
      "transactionHash": "0xede4684469e74e0fb929dfef294e70d771ffabd4672129efbd77042ad6377a98",
      "transactionIndex": "0x10",
      "blockHash": "0xc525150d4edd703b358eae5c29dfcf60ef3b34781bc2e20b101e5196bd7d73e3",
      "blockNumber": "0x365c5f6",
      "gasUsed": "0x55657",
      "effectiveGasPrice": "0x989680",
      "from": "0xe8e8272b7574f5248eddf28aaf882db89474af6c",
      "to": "0x5f8021925eb18b9243f8616a4547492e6c993ba2",
      "contractAddress": null
    }
  ],
  "libraries": [],
  "pending": [],
  "returns": {},
  "timestamp": 1779234568327,
  "chain": 46630,
  "commit": null
}